:100000000C9463000C948B000C948B000C943205C0
:100010000C9432050C9432050C948B000C948B00DC
:100020000C948B000C948B000C948B000C948B0024
:100030000C948B000C948B000C948B000C948B0014
:100040000C94E8040C948B000C94B6040C9490046B
:100050000C948B000C948B000C948B000C948B00F4
:100060000C948B000C948B000000000024002700EF
:100070002A0000000008000201000003040700003D
:1000800000000000000000000000230026002900FE
:1000900000000000250028002B00040404040404D0
:1000A0000404020202020202030303030303010227
:1000B00004081020408001020408102001020408F6
:1000C0001020AA05E00C11241FBECFEFD8E0DEBF40
:1000D000CDBF22E0A2E3B1E001C01D92AE3FB20766
:1000E000E1F711E0A0E0B1E0E0EFF3E202C005903B
:1000F0000D92A233B107D9F710E0C2E6D0E004C0F8
:100100002197FE010E94F30FC136D107C9F70E9463
:1001100055060C94EB110C940000AF92BF92CF9255
:10012000DF92EF92FF920F931F93CF93DF936C01B7
:100130007B018B01040F151FEB015E01AE18BF0898
:10014000C017D10759F06991D601ED91FC9101904A
:10015000F081E02DC6010995892B79F7C501DF9162
:10016000CF911F910F91FF90EF90DF90CF90BF90B4
:10017000AF900895FC01538D448D252F30E0842FDE
:1001800090E0821B930B541710F0CF9608950197BF
:100190000895FC01918D828D981761F0A28DAE0FAC
:1001A000BF2FB11D5D968C91928D9F5F9F73928F33
:1001B00090E008958FEF9FEF0895FC01918D828D5F
:1001C000981731F0828DE80FF11D858D90E008952C
:1001D0008FEF9FEF0895FC01918D228D892F90E084
:1001E000805C9F4F821B91098F73992708958EE33E
:1001F00092E00E94EB0021E0892B09F420E0822F9D
:10020000089580E090E0892B29F00E94F700811189
:100210000C9400000895FC01A48DA80FB92FB11D06
:10022000A35ABF4F2C91848D90E001968F7399272C
:10023000848FA689B7892C93A089B1898C9183700A
:1002400080648C93938D848D981306C00288F38903
:10025000E02D80818F7D80830895EF92FF920F9330
:100260001F93CF93DF93EC0181E0888F9B8D8C8D62
:1002700098131AC0E889F989808185FF15C09FB756
:10028000F894EE89FF896083E889F9898081837019
:10029000806480839FBF81E090E0DF91CF911F91C8
:1002A0000F91FF90EF900895F62E0B8D10E00F5FE9
:1002B0001F4F0F731127E02E8C8D8E110CC00FB6BF
:1002C00007FCFACFE889F989808185FFF5CFCE0157
:1002D0000E940B01F1CFEB8DEC0FFD2FF11DE35AC6
:1002E000FF4FF0829FB7F8940B8FEA89FB898081DA
:1002F0008062CFCFCF93DF93EC01888D8823B9F054
:10030000AA89BB89E889F9898C9185FD03C0808120
:1003100086FD0DC00FB607FCF7CF8C9185FFF2CF9D
:10032000808185FFEDCFCE010E940B01E9CFDF91E7
:10033000CF91089590E0FC01EE58FF4F2491FC010D
:10034000E255FF4F3491FC01E656FF4FE491EE2356
:10035000C9F0222339F0233001F1A8F4213019F13A
:10036000223029F1F0E0EE0FFF1FE057FF4FA5917B
:10037000B4918FB7F894EC91611126C030953E236B
:100380003C938FBF08952730A9F02830C9F024305E
:1003900049F7809180008F7D03C0809180008F7726
:1003A00080938000DFCF84B58F7784BDDBCF84B5A9
:1003B0008F7DFBCF8091B0008F778093B000D2CF3C
:1003C0008091B0008F7DF9CF3E2BDACFCF93DF93B2
:1003D00090E0FC01E255FF4F249186569F4FFC01AF
:1003E00084918823D1F090E0880F991FFC01E8598F
:1003F000FF4FA591B491FC01E057FF4FC591D491F7
:1004000061110EC09FB7F8948C91E22FE0958E2376
:100410008C932881E223E8839FBFDF91CF910895D9
:100420008FB7F894EC91E22BEC938FBFF6CF1F932C
:10043000CF93DF93182FEB0161E00E94E601209734
:1004400039F460E0812FDF91CF911F910C949A01D4
:10045000CF3FD10511F461E0F5CFE12FF0E0EE5888
:10046000FF4FE491E33031F140F4E130B1F0E2309C
:10047000E1F0C038D1057CF7E4CFE73029F1E8306E
:1004800059F1E430B1F78091800080628093800060
:10049000D0938B00C0938A0004C084B5806884BD6B
:1004A000C7BDDF91CF911F91089584B5806284BD4F
:1004B000C8BDF7CF80918000806880938000D09382
:1004C0008900C0938800EDCF8091B0008068809350
:1004D000B000C093B300E5CF8091B00080628093FC
:1004E000B000C093B400DDCF3FB7F89480917301A2
:1004F00090917401A0917501B091760126B5A89BE9
:1005000005C02F3F19F00196A11DB11D3FBFBA2FA5
:10051000A92F982F8827BC01CD01620F711D811D65
:10052000911D42E0660F771F881F991F4A95D1F7EA
:1005300008952091790130917A012817390771F4D3
:100540009091770180917801981741F0E0917701BF
:10055000F0E0EE5CFE4F808190E008958FEF9FEF1A
:1005600008950895EF92FF920F931F93CF93DF9317
:10057000DC015C96ED90FC905D97E114F10479F458
:1005800081E090E013969C938E93129790E080E028
:10059000DF91CF911F910F91FF90EF9008955196A9
:1005A000ED91FC91529750968C915097982F909581
:1005B0000FB75E962C915E97122F127021FD6095F9
:1005C000F8942081112319F1282B2083E70121972A
:1005D000F1F728E0462F50E0308160FF1AC0382B39
:1005E0003083E7012197F1F7BA017595679521509E
:1005F00089F7112381F08081892380830FBF5C9666
:100600008D919C910197F1F781E090E0C1CF292372
:10061000DCCF3923E5CF9081892BEFCF2091790171
:1006200030917A012817390771F48091780120916F
:10063000770190E0805C9F4F821B910960E470E03D
:100640000E94A90F089590E080E00895209179011B
:1006500030917A0128173907B9F490917701809188
:100660007801981789F0E0917701F0E0EE5CFE4F99
:1006700080812091770130E02F5F3F4F2F73332728
:100680002093770190E008958FEF9FEF089590E019
:1006900080E00895CF93DF93D62FC42F682F70E0AA
:1006A0008AE00E9417026D2F70E086E00E94170218
:1006B0006C2F70E089E0DF91CF910C94170290E0ED
:1006C000482F50E02DE230E0241B350BE92FF0E0FD
:1006D000E217F3074CF4E755FE4FDF01A40FB51FF7
:1006E0006C9160839F5FF2CF9DE2981BE92FF0E051
:1006F000E755FE4F11929F5F9D32E1F708958F926B
:100700009F92AF92BF92CF92DF92EF92FF92CF93E0
:10071000DF93D82FC42F70E090E080E00E94530D4B
:100720006B017C016D2F70E090E080E00E94530D22
:10073000A70196010E949B0E20E030E048EC52E4B5
:100740000E94080F4B015C016C2F70E090E080E08C
:100750000E94530D9B01AC01C501B4010E94900D94
:10076000A70196010E949C0E0E947A0F862FDF91AE
:10077000CF91FF90EF90DF90CF90BF90AF909F9080
:100780008F900895FF920F931F93CF93DF93F82ECE
:10079000009113021091140281E0F8018083C0914E
:1007A0001102D09112024F2D6B8188810E947F032C
:1007B000F80181834F2D6C8189810E947F03F801AC
:1007C00082834F2D6D818A810E947F03F80183838C
:1007D000DF91CF911F910F91FF900895FB01019040
:1007E0000020E9F73197AF01461B570BDC01ED9173
:1007F000FC910280F381E02D0994FC0180819181BC
:10080000009711F00C94951008950F931F93CF93B8
:10081000DF93EC0188819981009759F02A813B810F
:100820002617370730F081E0DF91CF911F910F91AC
:1008300008958B016F5F7F4F0E941E11009759F042
:10084000998388831B830A832C813D81232B59F74D
:10085000FC011082E8CF80E0E7CFEF92FF920F9388
:100860001F93CF93DF93EC017B018A01BA010E94B1
:10087000050428813981811114C02115310519F031
:10088000C9010E949510198218821D821C821B8248
:100890001A82CE01DF91CF911F910F91FF90EF90BF
:1008A00008951D830C83B701C9010E94E411F1CFA3
:1008B000EF92FF920F931F93CF93DF93CDB7DEB7E5
:1008C000A1970FB6F894DEBF0FBECDBF8C01CB0150
:1008D000BA01F801118210821382128215821482E9
:1008E0002AE0AE014F5F5F4F7A010E94070DF701CA
:1008F00001900020E9F73197AF014E195F09B70168
:10090000C8010E942D04A1960FB6F894DEBF0FBE59
:10091000CDBFDF91CF911F910F91FF90EF90089580
:100920001F920F920FB60F9211242F933F934F9364
:100930005F936F937F938F939F93AF93BF93EF9347
:10094000FF938EE392E00E940B01FF91EF91BF9124
:10095000AF919F918F917F916F915F914F913F9157
:100960002F910F900FBE0F901F9018951F920F920E
:100970000FB60F9211242F938F939F93EF93FF93B2
:10098000E0914E02F0914F028081E0915402F0918B
:10099000550282FD1BC09081809157028F5F8F733B
:1009A00020915802821741F0E0915702F0E0E25C9A
:1009B000FD4F958F80935702FF91EF919F918F91FB
:1009C0002F910F900FBE0F901F9018958081F4CF3C
:1009D0001F920F920FB60F9211242F933F938F9374
:1009E0009F93AF93BF938091050290910602A091CF
:1009F0000702B09108023091720123E0230F2D37D6
:100A000058F50196A11DB11D209372018093050236
:100A100090930602A0930702B0930802809173019D
:100A200090917401A0917501B09176010196A11D7C
:100A3000B11D8093730190937401A0937501B093DD
:100A40007601BF91AF919F918F913F912F910F9020
:100A50000FBE0F901F90189526E8230F0296A11D38
:100A6000B11DD2CF1F920F920FB60F9211242F9368
:100A70003F934F935F936F937F938F939F93AF9326
:100A8000BF93EF93FF93E0917901F0917A01309752
:100A900049F0A685B7858585968D91FF14C09C91F8
:100AA0008923A1F4FF91EF91BF91AF919F918F9115
:100AB0007F916F915F914F913F912F910F900FBE5A
:100AC0000F901F9018959C91892361F7A389B48991
:100AD0009C918589809589238C9386899789019734
:100AE000F1F7608D718DA685B785558538E020E0DA
:100AF000CB010197F1F7822F90E095958795282FEC
:100B00004C91452309F02068315091F7868D81FD85
:100B100020958091780190E001968F73992730910C
:100B20007701381799F0A0917801B0E0AE5CBE4F24
:100B30002C9380937801828D938D0197F1F7A3898F
:100B4000B4898C919589892B8C93ACCF868D8160EB
:100B5000868FF1CF109241021092400288EE93E00E
:100B6000A0E0B0E08093420290934302A09344023D
:100B7000B09345022DE031E030933F0220933E02D6
:100B800025EC30E030934B0220934A0224EC30E015
:100B900030934D0220934C0220EC30E030934F0212
:100BA00020934E0221EC30E030935102209350020A
:100BB00022EC30E0309353022093520226EC30E0D6
:100BC000309355022093540210925702109258020B
:100BD0001092590210925A021092DE021092DD0217
:100BE0008093DF029093E002A093E102B093E202CF
:100BF0008FE191E09093DC028093DB021092F2028D
:100C00001092F1021092F4021092F3021092F60286
:100C10001092F5021092F8021092F7026091F90218
:100C20006E7F6D7F6093F9026695617081E0682741
:100C300087E00E949A0161E087E00E94E601E5EB0F
:100C4000F0E0E491E093EB02E1EAF0E0E491F0E01F
:100C5000EE0FFF1FE057FF4F859194919093ED02A7
:100C60008093EC0260E088E00E94E6018091F90246
:100C700081FD04C061E088E00E949A0188E08093D1
:100C8000E702E6EBF0E0E491E093E802E2EAF0E06C
:100C9000E491F0E0EE0FFF1FEA57FF4F859194912A
:100CA0009093EA028093E9020895CF93DF93CDB742
:100CB000DEB7AD970FB6F894DEBF0FBECDBF789408
:100CC00084B5826084BD84B5816084BD85B5826051
:100CD00085BD85B5816085BD80916E008160809302
:100CE0006E0010928100809181008260809381006B
:100CF000809181008160809381008091800081607B
:100D0000809380008091B10084608093B1008091D5
:100D1000B00081608093B00080917A0084608093FD
:100D20007A0080917A00826080937A0080917A00C4
:100D3000816080937A0080917A00806880937A0045
:100D40001092C100E0914E02F0914F0282E0808348
:100D5000E0914A02F0914B021082E0914C02F09136
:100D60004D028FEC808310925602E0915202F09176
:100D7000530286E08083E0915002F091510280811D
:100D800080618083E0915002F091510280818860FF
:100D90008083E0915002F0915102808180688083CD
:100DA000E0915002F091510280818F7D80831092FA
:100DB000F6021092F5021092F4021092F3021092D1
:100DC000F2021092F1028DE991E09093F802809383
:100DD000F7029091E702963108F047C02DEB30E022
:100DE0003093F2022093F1022BE931E03093F402C8
:100DF0002093F3022CE231E03093F6022093F502C7
:100E00002091680084E0983048F031E09E3008F48A
:100E100030E081E001C0880F3A95EAF7822B809399
:100E200068002DE630E0983050F02BE630E09E3040
:100E300030F02CE630E0963110F030E020E03093D6
:100E4000EF022093EE02292F30E0983008F0E0C046
:100E500081E001C0880F9A95EAF78093F0028091B3
:100E6000F7029091F8020197F1F78091F5029091C5
:100E7000F602892B49F1E0917901F0917A0122E0A3
:100E8000EB3DF20709F1309739F0A389B4899C91C1
:100E90008589809589238C938091F9028E7F809338
:100EA000F90210927801109277018BED92E0909305
:100EB0007A0180937901E091EE02F091EF02808156
:100EC0009091F002892B808388EA91E09093DC0175
:100ED0008093DB018BE791E09093DF018093DE014B
:100EE00086E991E09093EF018093EE018AE090E033
:100EF0000E944E0E00EE11E08093E6018BE090E040
:100F00000E944E0E8093E7018CE090E00E944E0E0E
:100F10008093E80160E08CE00E949A0161E08AE041
:100F20000E94E60161E086E00E94E60161E089E05E
:100F30000E94E60161E08CE00E94E60161E087E04A
:100F40000E94E60120EF31E030932902209328022D
:100F50008AE292E0909304028093030210930202CB
:100F600000930102309327022093260290931402EB
:100F70008093130281E392E090930E0280930D021E
:100F80001093120200931102AE014F5F5F4F6A018E
:100F9000E3E07E2E11E00FEFF0E16F2E8FB7F894B3
:100FA00020900502309006024090070250900802FF
:100FB0008FBF80913A0290913B02A0913C02B09188
:100FC0003D0252014101881A990AAA0ABB0AD501B9
:100FD000C4014F97A105B10508F435C28EE392E034
:100FE0000E94EB00F090D6011816190654F57BE22A
:100FF000972E9F14D0F08EE392E00E94C900EF2D4F
:10100000F0E0E755FE4F8083F394F092D601E6CFEF
:101010009E3040F42850310981E001C0880F2A95A4
:10102000EAF71BCF2E503109F7CF8EE10E945F0304
:101030008EE392E00E94C9008093B8016092D601CD
:10104000CDCFF12CE090D601FE1408F0E6C06EE1A1
:10105000A62EAF1408F42AC2EF2DF0E0E755FE4F9C
:1010600080818F3FF1F481818A3AD9F48585853575
:10107000C1F486858F3FA9F4ABE7B1E081918D93F0
:1010800021E0AA38B207D1F78FE08F0D0E945F03ED
:1010900031EFE30EEF18E092D6017092A8011093A1
:1010A000D701EF2DF0E0E755FE4F80818F3F09F02B
:1010B00001C281818B3B09F00AC48681863609F022
:1010C000F9C187818F3F09F0F5C1AAE8B1E08191AC
:1010D0008D9382E991E08A179B07C9F780918C0173
:1010E00090918D01A0918E01B0918F018F7E9C7D9A
:1010F000AA7DBE708F59914EAF4FBF4FAC01BD015D
:101100004F705527662777274F5F5F4F6F4F7F4F91
:1011100004C0B695A795979587954A95D2F7809381
:10112000920190939301A0939401B09395011BA217
:101130001AA21DA21CA21FA21EA24AE0B60189EE9D
:1011400093E00E94FC0CF60101900020E9F7319732
:10115000AF014C195D09B601CE0182960E942D04A3
:101160004091920150919301609194017091950189
:10117000CE0188960E9458041A8219821C821B8212
:101180001E821D8268A579A56115710529F04CA5FF
:101190005DA5C6010E942D04EEA0FFA0AAA0BBA0E1
:1011A000A114B10409F488C1E114F104B1F08D81F6
:1011B0009E81E80EF91EB701C6010E94050488232E
:1011C00009F47AC129813A818D819E81B501820F0E
:1011D000931F0E94E411FE82ED824D815E81698140
:1011E0007A818EE392E00E948D00C6010E94FD0389
:1011F000CE0188960E94FD03CE0182960E94FD03D7
:101200006DE271E08EE392E00E94EE038FE00E94B7
:101210005F031092D6011093A801F090D7011092AD
:10122000D701F092F001E091DB01F091DC018081C7
:10123000813031F48093DA0161E08CE00E949A0100
:10124000F1E0FF1246C11092D9011092D8018091AD
:10125000DA01813011F4F092F101F090DD01109289
:10126000DD018091F1018130B9F5E091DE01F0916D
:10127000DF01828181708093F30182818695817084
:101280008093F401828182FB882780F98093F501A5
:10129000828183FB882780F98093F6018381809384
:1012A000F70184818093F80185818093F90186811B
:1012B0008093FA0187818093FB0180858093FC01F4
:1012C00081858093FD0182858093FE0183858093D3
:1012D000FF0184858093000251E0F51244C0E09143
:1012E000EE01F091EF0182818093E0018381809390
:1012F000E10184818093E20185818093E30186810D
:101300008093E40187818093E50160856093E60125
:1013100081858093E70182858093E80183858093AE
:10132000E90184858093EA0185858093EB018AE059
:1013300090E00E94560E6091E7018BE090E00E94E1
:10134000560E6091E8018CE090E00E94560EE0910C
:10135000EE01F091EF0186858093EC018785809303
:10136000ED01F092F201E0912802F09129028181D1
:10137000823009F0CEC0E0910302F09104021083A4
:10138000A0910102B091020216968C91169781836A
:1013900017968C911797828318968C9183838091EE
:1013A0002A02813051F410922A0240912D0260915C
:1013B0002C0280912B020E944A03809131028130DD
:1013C00029F41092310282E080933902809139022F
:1013D000823031F4109339028091350280930201FA
:1013E00080913902813039F580913702882309F4E0
:1013F00067C2F09002018F2D0F2C000C990B2091E9
:1014000035022817190609F030C240913402609164
:101410003302809132020E944A031F140CF039C239
:10142000FA94F09202018091010118160CF03AC270
:1014300081508093010120923A0230923B02409207
:101440003C0250923D020E9474021B012C013AE0C2
:10145000832E912CA12CB12C0E9474026219730965
:1014600084099509683E734081059105A8F3B1E0B0
:101470008B1A9108A108B108E8EE2E0EE3E03E1E9B
:10148000411C511C81149104A104B10429F720E0EE
:10149000822E20E0922E892809F480CD0E94F70048
:1014A000882309F475CD0E94000072CD45E24F15E6
:1014B00008F0F7CDF394C6CD89819A81009711F099
:1014C0000E9495101A8219821E821D821C821B8224
:1014D00084CEE090D801F090D90123E3E216F10424
:1014E00019F47092F101B9CE32E3E316F10449F434
:1014F00082E08093F1011092DA0160E08CE00E94BA
:101500009A014FEFE41AF40AF092D901E092D8015F
:10151000A4CE813009F043CFE0902602F09027025C
:10152000D70113968C911397A0901102B0901202DC
:10153000811126C080911802811104C012968C91ED
:101540008130F1F4E0911302F09114021083D5017F
:1015500019968C91199781831A968C911A97828388
:101560001B968C918383E0912602F09127021282D0
:1015700081E1A5E1B2E001900D928A95E1F70FCFEC
:10158000F501858585FFB5C0D7011D969C919923EE
:1015900009F4AFC08FB7F89440910502509106024C
:1015A00060910702709108028FBFE0912602F091CE
:1015B00027028585823009F48BC0833009F490C0FE
:1015C000813009F03FC0F0901002B1E0FB122AC058
:1015D0008091090290910A02A0910B02B0910C0235
:1015E0004A015B01881A990AAA0ABB0AC501B4011B
:1015F00028EE33E040E050E00E94BD0F2D3149F469
:10160000E0911302F0911402F0821182128203839E
:1016100019C02232B9F4E0911302F0911402F08261
:101620000183F4CFE0911302F091140280830183CF
:10163000128213824093090250930A0260930B02B4
:1016400070930C0210931002E0911102F0911202BB
:101650009585A0912602B091270293FF1BC01A9690
:101660008C911A978823B1F020911F02281790F4CB
:1016700015968C91159781110DC0E0910D02F09196
:101680000E02108382E084838583168388EC818335
:101690008283838394FF67CF1B968C911B9788234B
:1016A00009F461CF90912002981708F05CCF15964D
:1016B0008C91811158CFE0910D02F0910E021083B0
:1016C000148382E0858376820183028303834BCF78
:1016D000E0911302F091140210830183028397CFEB
:1016E000E0911302F091140210831182128213828E
:1016F000A9CF81FF29C0D70150968C91843621F55E
:1017000010930F0280910001833099F08530C9F069
:10171000813049F4E0911302F09114028083018337
:101720008EE182831382809100018F5F809300019C
:101730008BCFE0911302F09114021083018388E7AC
:10174000F0CF10920001EFCF80910F02813021F095
:1017500080911002813031F4F701128310920F0250
:1017600010921002D5011C968C91823069F0843061
:1017700009F476C0813001F5F701878190911C0250
:1017800089130EC092810AC0D70118968C911897C0
:1017900090911D02891304C012969C91913061F4BE
:1017A0000E94C203E0911302F091140281818483AC
:1017B0008281858383818683D5011D968C9082FEEC
:1017C00025C0F7019684809123029816F9F0A09025
:1017D0001302B0901402D5011C93492D14966C91FC
:1017E00080E00E947F03F5018183492D658180E0BF
:1017F0000E947F03D50112968C931297492D16965D
:101800006C9180E00E947F03F501838380FE1CCFF2
:10181000D7011F96BC9080912402B81609F414CF0A
:10182000E0901302F0901402F70110834B2D6481B5
:101830008FEF0E947F03D70111968C9311974B2D48
:1018400015966C918FEF0E947F03F70182834B2DD9
:1018500066818FEF0E947F03D70113968C93F4CE9D
:10186000F701818590911E028BCF20910101022EFC
:10187000000C330B809136028150990B28173907E1
:1018800009F0CBCD40912D0260912C0280912B026A
:10189000C2CDF110C8CD8091360280930101009332
:1018A0000201C1CD8111C7CD809135028093020123
:1018B0000093010180913702815080933702BBCDA4
:1018C000009302010093010110923902B4CD9BE113
:1018D000992E9F1408F4EECD8C3C09F0EBCD808955
:1018E000873709F0E7CD81898F3F09F0E3CD56E9CD
:1018F000852E51E0952E74018191D7018D937D0144
:1019000048EAA42E41E0B42EAA16BB06A9F7D401DA
:101910002D914D0130E050E040E019A25E01B1E2AE
:10192000AB0EB11CCA01B9012AE030E040E050E042
:101930000E94BD0F605DF50162935F0121153105C5
:101940004105510579F7309729F0BF018BED92E001
:101950000E94EE036FE271E08BED92E00E94EE03D5
:10196000E814F904A1F66DE271E08BED92E00E94BB
:10197000EE03409192015091930160919401709116
:101980009501C6010E9458044D815E8169817A816A
:101990008EE392E00E948D00C6010E94FD036DE27D
:1019A00071E08EE392E00E94EE038FE00E945F03FD
:1019B0001092D60182E08093A8011093DD012DCC16
:1019C0008FE191E09093DC028093DB0280917901BA
:1019D00090917A018B5D924071F4E091EE02F0916A
:1019E000EF0290818091F00280958923808310928C
:1019F0007A01109279010895BB274A3031F4992376
:101A000022F4BDE2909581959F4F0C942A0DBB273F
:101A1000FA01A62F6217710581059105330B30FB82
:101A200066F0AA27660F771F881F991FAA1FA217A3
:101A300010F0A21B63953850A9F7A05DAA3308F0F7
:101A4000A95DA19336F7B111B1931082CA010C942C
:101A5000430DBB27FB015527AA27880F991FAA1FF3
:101A6000A41710F0A41B83955051B9F7A05DAA33B9
:101A700008F0A95DA193009779F7B111B193119284
:101A8000CB010C94430DDC01FC01672F719177238E
:101A9000E1F7329704C07C916D9370836291AE1729
:101AA000BF07C8F30895E89409C097FB3EF49095EA
:101AB0008095709561957F4F8F4F9F4F9923A9F027
:101AC000F92F96E9BB279395F695879577956795B6
:101AD000B795F111F8CFFAF4BB0F11F460FF1BC0FA
:101AE0006F5F7F4F8F4F9F4F16C0882311F096E98D
:101AF00011C0772321F09EE8872F762F05C066233B
:101B000071F096E8862F70E060E02AF09A95660FF3
:101B1000771F881FDAF7880F9695879597F90895AC
:101B20000E94A30D0C94140E0E94060E38F00E9421
:101B30000D0E20F0952311F00C94FD0D0C94030E66
:101B400011240C94480E0E94250E70F3959FC1F34A
:101B5000950F50E0551F629FF001729FBB27F00D5B
:101B6000B11D639FAA27F00DB11DAA1F649F6627B0
:101B7000B00DA11D661F829F2227B00DA11D621FFF
:101B8000739FB00DA11D621F839FA00D611D221FB9
:101B9000749F3327A00D611D231F849F600D211D9D
:101BA000822F762F6A2F11249F5750409AF0F1F020
:101BB00088234AF0EE0FFF1FBB1F661F771F881F89
:101BC00091505040A9F79E3F510580F00C94FD0DB7
:101BD0000C94480E5F3FE4F3983ED4F386957795D6
:101BE0006795B795F795E7959F5FC1F7FE2B880F2F
:101BF000911D9695879597F9089597F99F6780E8C5
:101C000070E060E008959FEF80EC089500240A944E
:101C10001616170618060906089500240A941216C7
:101C20001306140605060895092E0394000C11F4FA
:101C3000882352F0BB0F40F4BF2B11F460FF04C0A7
:101C40006F5F7F4F8F4F9F4F089557FD9058440F00
:101C5000551F59F05F3F71F04795880F97FB991F0B
:101C600061F09F3F79F087950895121613061406C8
:101C7000551FF2CF4695F1DF08C016161706180655
:101C8000991FF1CF86957105610508940895E89430
:101C9000BB2766277727CB0197F90895F999FECFDF
:101CA00092BD81BDF89A992780B50895262FF9999C
:101CB000FECF1FBA92BD81BD20BD0FB6F894FA9A2F
:101CC000F99A0FBE019608952F923F924F925F921C
:101CD0006F927F928F929F92AF92BF92CF92DF923C
:101CE000EF92FF920F931F93CF93DF93CDB7DEB7A1
:101CF000CA1BDB0B0FB6F894DEBF0FBECDBF099435
:101D00002A88398848885F846E847D848C849B848B
:101D1000AA84B984C884DF80EE80FD800C811B8199
:101D2000AA81B981CE0FD11D0FB6F894DEBF0FBEC8
:101D3000CDBFED0108955058BB27AA270E94B30ECE
:101D40000C94140E0E94060E38F00E940D0E20F026
:101D500039F49F3F19F426F40C94030E0EF4E09529
:101D6000E7FB0C94FD0DE92F0E94250E58F3BA17DE
:101D7000620773078407950720F079F4A6F50C94A1
:101D8000470E0EF4E0950B2EBA2FA02D0B01B901D2
:101D900090010C01CA01A0011124FF27591B99F0E1
:101DA000593F50F4503E68F11A16F040A22F232FED
:101DB000342F4427585FF3CF469537952795A7953D
:101DC000F0405395C9F77EF41F16BA0B620B730BE4
:101DD000840BBAF09150A1F0FF0FBB1F661F771F55
:101DE000881FC2F70EC0BA0F621F731F841F48F40A
:101DF000879577956795B795F7959E3F08F0B0CF93
:101E00009395880F08F09927EE0F97958795089579
:101E10000E941C0F0C94140E0E940D0E58F00E948C
:101E2000060E40F029F45F3F29F00C94FD0D51118E
:101E30000C94480E0C94030E0E94250E68F399230F
:101E4000B1F3552391F3951B550BBB27AA276217B6
:101E50007307840738F09F5F5F4F220F331F441FC3
:101E6000AA1FA9F335D00E2E3AF0E0E832D09150F7
:101E70005040E695001CCAF72BD0FE2F29D0660FE4
:101E8000771F881FBB1F261737074807AB07B0E827
:101E900009F0BB0B802DBF01FF2793585F4F3AF02D
:101EA0009E3F510578F00C94FD0D0C94480E5F3F59
:101EB000E4F3983ED4F3869577956795B795F795B3
:101EC0009F5FC9F7880F911D9695879597F908959B
:101ED000E1E0660F771F881FBB1F62177307840737
:101EE000BA0720F0621B730B840BBA0BEE1F88F746
:101EF000E09508950E942D0E88F09F5798F0B92F15
:101F00009927B751B0F0E1F0660F771F881F991F2E
:101F10001AF0BA95C9F714C0B13091F00E94470E7B
:101F2000B1E008950C94470E672F782F8827B85F8B
:101F300039F0B93FCCF3869577956795B395D9F786
:101F40003EF490958095709561957F4F8F4F9F4F90
:101F5000089597FB072E16F4009407D077FD09D05B
:101F60000E94DF0F07FC05D03EF4909581959F4FAE
:101F70000895709561957F4F0895A1E21A2EAA1BCE
:101F8000BB1BFD010DC0AA1FBB1FEE1FFF1FA21729
:101F9000B307E407F50720F0A21BB30BE40BF50B26
:101FA000661F771F881F991F1A9469F760957095AF
:101FB000809590959B01AC01BD01CF010895AA1BAE
:101FC000BB1B51E107C0AA1FBB1FA617B70710F024
:101FD000A61BB70B881F991F5A95A9F78095909556
:101FE000BC01CD010895EE0FFF1F0590F491E02D87
:101FF00009940F931F93CF93DF938230910510F4D0
:1020000082E090E0E091FC02F091FD0230E020E0FF
:10201000B0E0A0E0309799F42115310509F44AC0E9
:10202000281B390B24303105D8F58A819B81611535
:10203000710589F1FB0193838283FE0111C0408108
:1020400051810281138148175907E0F04817590759
:1020500099F4109761F012960C93129713961C93B3
:102060003296CF01DF91CF911F910F910895009388
:10207000FC021093FD02F4CF2115310551F04217F7
:10208000530738F0A901DB019A01BD01DF01F80116
:10209000C1CFEF01F9CF9093FD028093FC02CDCF29
:1020A000FE01E20FF31F819391932250310939838E
:1020B0002883D7CF2091FA023091FB02232B41F4E1
:1020C00020910501309106013093FB022093FA0222
:1020D00020910301309104012115310541F42DB700
:1020E0003EB74091070150910801241B350BE09148
:1020F000FA02F091FB02E217F307A0F42E1B3F0B4C
:102100002817390778F0AC014E5F5F4F2417350769
:1021100048F04E0F5F1F5093FB024093FA028193E9
:1021200091939FCFF0E0E0E09CCFCF93DF930097B7
:10213000E9F0FC01329713821282A091FC02B09167
:10214000FD02ED0130E020E01097A1F42081318103
:10215000820F931F2091FA023091FB022817390752
:1021600009F061C0F093FB02E093FA02DF91CF9196
:102170000895EA01CE17DF07E8F54A815B819E01E9
:1021800041155105B1F7E901FB83EA834991599162
:10219000C40FD51FEC17FD0761F480819181029671
:1021A000840F951FE90199838883828193819B83A2
:1021B0008A83F0E0E0E012968D919C91139700974E
:1021C000B9F52D913C911197CD010296820F931F85
:1021D0002091FA023091FB022817390739F630971F
:1021E00051F51092FD021092FC02B093FB02A093F5
:1021F000FA02BCCFD383C28340815181840F951FE3
:10220000C817D90761F44E5F5F4F88819981480FE5
:10221000591F518340838A819B8193838283211537
:10222000310509F0B0CFF093FD02E093FC029ECFA0
:10223000FD01DC01C0CF13821282D7CFB0E0A0E055
:10224000E4E2F1E10C94660E8C01009751F4CB01AD
:102250000E94F90F8C01C801CDB7DEB7E0E10C9404
:10226000820EFC01E60FF71F9C0122503109E21794
:10227000F30708F49DC0D901CD91DC911197C617E1
:10228000D70798F0C530D10530F3CE0104978617F3
:10229000970708F3C61BD70B2297C193D1936D9371
:1022A0007C93CF010E949510D6CF5B01AC1ABD0A7A
:1022B0004C018C0E9D1EA091FC02B091FD02512C90
:1022C000412CF12CE12C109731F58091FA0290917C
:1022D000FB028815990509F05CC04616570608F000
:1022E00058C08091030190910401009741F48DB78B
:1022F0009EB74091070150910801841B950BE81788
:10230000F90708F055C0F093FB02E093FA02F901D7
:1023100071836083A0CF8D919C91119712966C90E0
:10232000129713967C901397A815B90559F56C016F
:1023300042E0C40ED11CCA14DB0420F1AC014A19DE
:102340005B09DA011296159780F0628273825183DD
:102350004083D9016D937C93E114F10471F0D701AE
:102360001396FC93EE93129776CF22968C0F9D1FB7
:10237000F90191838083F301EFCFF093FD02E093A5
:10238000FC0269CF4816590608F42C017D01D301DF
:102390009ACFCB010E94F90F7C01009749F0AE0162
:1023A000B8010E94DB11C8010E949510870153CF2C
:1023B00010E000E050CFFB01DC0102C001900D9263
:1023C00041505040D8F70895FB01DC0101900D9277
:1023D0000020E1F7089510E0C2E6D0E004C0FE015D
:1023E0000E94F30F2196C336D107C9F7F894FFCFA7
:1023F00001FFFF0000FE028000000000002D018DA3
:1024000000BA007A01EB00C900DD0000000000B254
:10241000028D004703B1020E03260399020A002031
:022420000000BA
:00000001FF
